:100000000C940F010C942C010C942C010C942C01D9
:100010000C942C010C942C010C942C010C942C01AC
:100020000C942C010C942C010C942C010C942C019C
:100030000C942C010C942C010C942C010C942C018C
:100040000C942C010C942C010C942C010C942C017C
:100050000C942C010C942C010C942C010C942C016C
:100060000C942C010C942C010C942C010C942C015C
:100070000C942C010C942C010C942C010C942C014C
:100080000C942C010C942C010C942C010C942C013C
:100090000C942C010C942C010C942C010C942C012C
:1000A0000C942C010C942C010C942C010C942C011C
:1000B0000C942C010C942C010C942C010C942C010C
:1000C0000C942C010C942C010C942C01456E74653D
:1000D000722074686520626C6F636B206E756D6250
:1000E000657220746F20726561640A0D00496E6943
:1000F00074205375636365656465642C2052656183
:1001000064696E6720426C6F636B20300A0D004695
:1001100061696C65640A0D000000000000000000C9
:10012000000000496E697469616C697A696E6720C4
:10013000534420436172640A0D005468697320704F
:10014000726F6772616D207761732063726561748D
:1001500065642062792044757374696E2054616E01
:100160006B736C657920616E642050726573746F77
:100170006E204D6973656D65720A0D00416464728D
:100180002E20302020312020322020332020342007
:1001900020352020362020372020382020392020EC
:1001A000412020422020432020442020452020467A
:1001B0000A0D000053442043617264204E6F742086
:1001C0004163746976650A0D0000000000434D44E8
:1001D000203538204572726F720A0D0000434D447D
:1001E000203535204572726F720A0D0000434D4470
:1001F000203431204572726F720A0D0000434D4465
:100200002038204572726F720A0D000000434D4481
:100210002030204572726F720A0D00000000112418
:100220001FBECFEFD8E0DEBFCDBF11E0A0E0B1E050
:10023000E0E2F5E102C005900D92AA33B107D9F7CB
:1002400021E0AAE3B1E001C01D92AA38B207E1F7AC
:100250000E94CE010C948E0A0C940000FC012181B6
:10026000622B61830895FC012281622B62830895D1
:10027000FC01928160956923628308958F929F9219
:10028000AF92BF92EF92FF920F931F93CF93DF93A2
:10029000CDB7DEB72B970FB6F894DEBF0FBECDBF3C
:1002A0007C0180E008C0E1E0F0E0EC0FFD1FE80F0A
:1002B000F11D10828F5F8B30B0F388248A94982CC4
:1002C000540100E0C7010E94E606182F80ED810F5F
:1002D0008A3068F4612FC7010E94E006E1E0F0E097
:1002E000EC0FFD1FE00FF11D10830F5F2DC01830C4
:1002F00011F01F37A9F40150E1E0F0E0EC0FFD1F11
:10030000E00FF11D108268E0C7010E94E00660E284
:10031000C7010E94E00668E0C7010E94E00614C021
:100320001D3021F01A3011F01E3271F4CE01019609
:100330000E9468074B015C016DE0C7010E94E00666
:100340006AE0C7010E94E0060A3071F4CE0101960E
:100350000E9468074B015C016DE0C7010E94E00646
:100360006AE0C7010E94E0068FEF88169806A8068B
:10037000B80609F4A7CFC501B4012B960FB6F894BF
:10038000DEBF0FBECDBFDF91CF911F910F91FF90C8
:10039000EF90BF90AF909F908F900895CF93DF9391
:1003A000CDB7DEB7D2500FB6F894DEBF0FBECDBFCB
:1003B0000E94EC06F82E192FEE24E39400E028E0CA
:1003C00040E855E260E070E088EC90E00E948C0626
:1003D0001F9285E58F9380E091E09F938F931F9309
:1003E000FF920E94A4074F2D512F682F88EC90E0B8
:1003F0000E9415074F2D512F60E08AE391E00E9483
:10040000EF064F2D512F682F88EC90E00E941507C2
:100410004F2D512F60E083E291E00E94EF064F2DB7
:10042000512F682F88EC90E00E94150760E87AE170
:1004300086E090E00E9450068CE490E00E94270441
:100440000F900F900F900F900F900F908823E1F175
:100450002FEF87EA91E6215080409040E1F700C0FD
:1004600000004F2D512F60E08DEE90E00E94EF06CE
:100470004F2D512F682F88EC90E00E94150760E106
:1004800083E290E00E94380120E030E0A90161E1C0
:100490008CE490E00E947C03AE014F5F5F4F60E010
:1004A00072E08CE490E00E94A00560E183E290E0BD
:1004B0000E943301AE014F5F5F4F60E072E088EC55
:1004C00090E00E944E030EC04F2D512F60E08FE050
:1004D00091E00E94EF064F2D512F682F88EC90E09D
:1004E0000E9415074F2D512F60E08CEC90E00E9488
:1004F000EF064F2D512F682F88EC90E00E941507D2
:1005000088EC90E00E943E01C62ED72EE82E092FDF
:100510009F938F937F936F9389E291E09F938F9343
:100520001F93FF920E94A4074F2D512F682F88EC34
:1005300090E00E9415070F93EF92DF92CF928AE12D
:1005400091E09F938F931F93FF920E94A4074F2DDA
:10055000512F682F88EC90E00E94150760E183E23C
:1005600090E00E9438012C2D3D2D4E2D502F61E141
:100570008CE490E00E947C03AE014F5F5F4F60E02F
:1005800072E08CE490E00E94A005082F60E183E215
:1005900090E00E9433010FB6F894DEBF0FBECDBFCE
:1005A000002379F04F2D512F60E08FE091E00E9401
:1005B000EF064F2D512F682F88EC90E00E94150711
:1005C00091CFAE014F5F5F4F60E072E088EC90E04A
:1005D0000E944E0387CFDF92EF92FF920F931F93FB
:1005E000CF93DF938C017B010E94EC06D82ED92F8C
:1005F000FF92EF928FE291E09F938F93DF93DF92D0
:100600000E94A4074D2D5D2F60E0C8010E941507D0
:100610000F900F900F900F900F900F90C0E01BC0A5
:10062000F701EC0FF11D80811F928F9383E391E01E
:100630009F938F93DF93DF920E94A4074D2D5D2F30
:1006400060E0C8010E941507CF5F0F900F900F90D8
:100650000F900F900F90C03118F3C0E00DC0F7015C
:10066000EC0FF11D608180EE860F803608F06EE29F
:10067000C8010E94E006CF5FC03188F36DE0C80179
:100680000E94E0066AE0C8010E94E006DF91CF9177
:100690001F910F91FF90EF90DF900895CF92DF921E
:1006A000EF92FF920F931F93CF93DF937C016B0127
:1006B0008A010E94EC06EC01AC0160E08CE791E05D
:1006C0000E94EF06AE0160E0C7010E941507E80135
:1006D000BE01C7010E94EB026096C8018C0D9D1DF2
:1006E000C817D907A8F3DF91CF911F910F91FF9001
:1006F000EF90DF90CF9008958F929F92BF92CF920C
:10070000DF92EF92FF921F93CF93DF931F92CDB7AB
:10071000DEB7662341F0683059F0603408F045C018
:10072000BB24B39409C00F2EF5E9BF2EF02D04C0F1
:100730000F2EF7E8BF2EF02D69017A014C0160649D
:10074000AE014F5F5F4F0E947006898181112EC0FC
:1007500010E01DC043E050E0411B5109440F551FFC
:10076000440F551F440F551FC701B60104C096958D
:100770008795779567954A95D2F7AE014F5F5F4FA2
:10078000C4010E9470068981811110C01F5F14305E
:1007900008F3898181110AC0AE014F5F5F4F6B2D55
:1007A000C4010E947006898101C083E00F90DF912F
:1007B000CF911F91FF90EF90DF90CF90BF909F90CF
:1007C0008F900895CF92DF92EF92FF920F931F9335
:1007D000CF93DF931F92CDB7DEB77C01062F6A015E
:1007E000AE014F5F5F4F6FEF0E94700607C0AE0112
:1007F0004F5F5F4F6FEFC7010E9470068823BCF305
:10080000F601808311E00FC0AE014F5F5F4F6FEFC5
:10081000C7010E947006F601E10FF11D80838981F6
:1008200081110BC01F5F101778F3AE014F5F5F4F50
:100830006FEFC7010E94700689810F90DF91CF9101
:100840001F910F91FF90EF90DF90CF900895CF927E
:10085000DF92EF92FF920F931F93CF93DF9300D01D
:1008600000D000D0CDB7DEB77C010E94EC066C0151
:1008700060E183E290E00E94330100E010E009C0F3
:10088000AE014A5F5F4F6FEFC7010E9470060F5FB6
:100890001F4F0B301105A4F360E183E290E00E944A
:1008A000380120E030E0A90160E0C7010E947C032C
:1008B000AE014F5F5F4F61E0C7010E94E203898193
:1008C000813099F060E183E290E00E943301A6015B
:1008D00060E08DE092E00E94EF06A601682F88ECB0
:1008E00090E00E94150780E01CC160E183E290E087
:1008F0000E9433018FE99FE00197F1F700C00000EB
:1009000060E183E290E00E9438012AEA31E040E0B1
:1009100050E068E0C7010E947C03AE014F5F5F4F6B
:1009200065E0C7010E94E20389818130F9F08A8184
:100930008823E1F08B818823C9F08C818130B1F06C
:100940008D818A3A99F060E183E290E00E94330160
:10095000A60160E08DEF91E00E94EF06A601682FEE
:1009600088EC90E00E94150780E0DBC060E183E244
:1009700090E00E9433018FE99FE00197F1F700C0FA
:10098000000060E183E290E00E94380120E030E066
:10099000A9016AE3C7010E947C03AE014F5F5F4F6C
:1009A00065E0C7010E94E2038981813009F46BC0D0
:1009B0008B818F3F09F469C060E183E290E00E947F
:1009C0003301A60160E08DEC91E00E94EF06A601E4
:1009D000682F88EC90E00E94150780E0A2C060E1DB
:1009E00083E290E00E9433018FE99FE00197F1F7E5
:1009F00000C0000060E183E290E00E94380120E046
:100A000030E0A90167E3C7010E947C03AE014F5F9C
:100A10005F4F61E0C7010E94E2038981823098F054
:100A200060E183E290E00E943301A60160E08DED79
:100A300091E00E94EF06A601682F88EC90E00E94EA
:100A4000150780E06EC020E030E040E050E469E24D
:100A5000C7010E947C03AE014F5F5F4F61E0C70199
:100A60000E94E2038981823088F0A60160E08DEE69
:100A700091E00E94EF06A601682F88EC90E00E94AA
:100A8000150780E04EC081E001C081E0813009F4AB
:100A9000A6CF882371F0A60160E084EB91E00E946C
:100AA000EF06A601682F88EC90E00E94150780E011
:100AB00038C060E183E290E00E9433018FE99FE05B
:100AC0000197F1F700C0000060E183E290E00E942E
:100AD000380120E030E0A9016AE3C7010E947C03ED
:100AE000AE014F5F5F4F65E0C7010E94E20389815D
:100AF000882359F08B81807C803C39F460E183E26B
:100B000090E00E94330180E00CC060E183E290E05D
:100B10000E9433018FE99FE00197F1F700C00000C8
:100B200081E026960FB6F894DEBF0FBECDBFDF91F1
:100B3000CF911F910F91FF90EF90DF90CF9008958C
:100B4000AF92BF92CF92DF92EF92FF920F931F93DB
:100B5000CF93DF931F92CDB7DEB77C016B015A01B3
:100B6000AE014F5F5F4F6FEF0E94700611E008C04B
:100B7000AE014F5F5F4F6FEFC7010E9470061F5FAE
:100B8000882314F41111F4CF112309F445C0811105
:100B900045C0AE014F5F5F4F6FEFC7010E94700607
:100BA00007C0AE014F5F5F4F6FEFC7010E94700635
:100BB0008E3F19F0982F907FA1F78E3F81F500E0CE
:100BC00010E010C0AE014F5F5F4F6FEFC7010E9492
:100BD0007006F501E00FF11F8083898181111FC02C
:100BE0000F5F1F4F0C151D0568F3AE014F5F5F4F80
:100BF0006FEFC7010E947006AE014F5F5F4F6FEF4E
:100C0000C7010E947006AE014F5F5F4F6FEFC701D3
:100C10000E947006898103C081E001C083E00F90CB
:100C2000DF91CF911F910F91FF90EF90DF90CF90C8
:100C3000BF90AF900895CF93DF93EC019A01AB0181
:100C400060E074E284EF90E00E944607223078F082
:100C5000243080F0283088F0203190F0203298F055
:100C60002034A0F02223ACF480E090E514C081E0B1
:100C700090E511C080E090E50EC081E091E50BC0E9
:100C800080E091E508C081E092E505C080E092E552
:100C900002C081E093E598838983DF91CF91089525
:100CA000CF92DF92EF92FF926B017C0160EB83E2C7
:100CB00090E00E942E0160E383E290E00E94330105
:100CC00060E883E290E00E943801B701A6018CE45D
:100CD00090E00E941B06FF90EF90DF90CF90089568
:100CE000FC01628391E021819F5F322F307C11F4FF
:100CF0009111F9CF911105C081E0DA018C938FEF4A
:100D0000089526FF05C082E0DA018C938281089560
:100D1000DA011C9282810895EF920F931F93CF9373
:100D2000DF93EC01122F1882DB01CA01880F991F93
:100D3000AA1FBB1F880F991FAA1FBB1F9C01AD01D3
:100D4000220F331F441F551F220F331F441F551FEF
:100D500060E074E284EF90E00E9446072150310980
:100D6000C90199279D832C83173059F018F4163048
:100D700089F004C0183041F0193049F098E180E062
:100D80000BC098E184E008C098E186E005C09CE1D2
:100D900086E002C098E182E0013019F0023019F0DB
:100DA00003C0806301C0806222E0E21201C088605B
:100DB0008A839983DF91CF911F910F91EF900895CE
:100DC000FC01908195FFFDCF66830895FC01908121
:100DD0009923ECF7868108958AE391E00895CF93F3
:100DE000DF93DC0161111AC0262F30E0FD01E20F14
:100DF000F31FE491EA01C20FD31FE8836F5FE11193
:100E0000F3CF0FC0292F30E0FD01E20FF31FE49173
:100E1000EA01C20FD31FE8839F5F01C090E09617DD
:100E200088F3862FDF91CF910895EF92FF920F9371
:100E30001F93CF93DF937C01062FEA01611115C048
:100E4000688105C0C7010E94E00621966881611192
:100E5000F9CF15C0FE01E10FF11D17FDFA95608174
:100E6000C7010E94E0061F5F01C010E0202F30E0A4
:100E7000812F012E000C990B821793075CF3DF91F1
:100E8000CF911F910F91FF90EF900895A1E21A2E3C
:100E9000AA1BBB1BFD010DC0AA1FBB1FEE1FFF1F1E
:100EA000A217B307E407F50720F0A21BB30BE40B6E
:100EB000F50B661F771F881F991F1A9469F76095B5
:100EC0007095809590959B01AC01BD01CF0108956F
:100ED0001F93FC0199278827BC01E89411911032D7
:100EE000E9F3193010F01E30C8F31B3251F01D32F7
:100EF00049F4689406C00E948F07610F711D811D1F
:100F0000911D119110531A30B0F33EF490958095D5
:100F1000709561957F4F8F4F9F4F1F910895592F67
:100F2000482F372F262F660F771F881F991F660FB0
:100F3000771F881F991F620F731F841F951F660FED
:100F4000771F881F991F0895AEE0B0E0EAEAF7E046
:100F50000C94650A0D891E8986E08C831A830983A7
:100F60008FEF9FE79E838D83AE01475E5F4F6F8952
:100F7000788DCE0101960E94C607EF81F885E00FBB
:100F8000F11F10822E96E4E00C94810AABE0B0E0F1
:100F9000ECECF7E00C94570A6C017B018A01FC0130
:100FA00017821682838181FFCCC1CE0101963C015C
:100FB000F6019381F70193FD859193FF81917F0164
:100FC000882309F4BAC1853239F493FD859193FFE2
:100FD00081917F01853229F4B60190E00E94BD091C
:100FE000E7CF912C212C312CFFE1F315D8F08B3277
:100FF00079F038F4803279F08332A1F4232D206126
:101000001DC08D3261F0803369F4232D216016C03C
:10101000832D8260382EE32DE4603E2E2AC0F32D0E
:10102000F8601DC037FC2DC020ED280F2A3040F09D
:101030008E32B9F436FC81C1232D2064322E19C0C2
:1010400036FE06C08AE0989E200D1124922E11C013
:10105000EAE02E9E200D1124222EF32DF0623F2E69
:1010600008C08C3621F4832D8068382E02C0883663
:1010700041F4F70193FD859193FF81917F018111E7
:10108000B3CF982F9F7D9554933028F40C5F1F4F5A
:101090009FE399830DC0833631F0833771F0833538
:1010A00009F059C021C0F801808189830E5F1F4F6C
:1010B00088248394912C530113C02801F2E04F0E31
:1010C000511CF801A080B18036FE03C0692D70E08C
:1010D00002C06FEF7FEFC5010E94B2094C0182018F
:1010E000F32DFF773F2E16C0280122E0420E511C3F
:1010F000F801A080B18036FE03C0692D70E002C007
:101100006FEF7FEFC5010E94A7094C01F32DF06836
:101110003F2E820133FC1BC0822D90E08816990679
:10112000B0F4B60180E290E00E94BD092A94F4CFA9
:10113000F50137FC859137FE81915F01B60190E0A2
:101140000E94BD0921102A9421E0821A910881147D
:10115000910471F7E8C0843611F0893641F5F80141
:1011600037FE07C060817181828193810C5F1F4FC0
:1011700008C060817181072E000C880B990B0E5FEF
:101180001F4FF32DFF763F2E97FF09C09095809556
:10119000709561957F4F8F4F9F4FF0683F2E2AE0EB
:1011A00030E0A3010E94F909882E861845C08537D2
:1011B00031F4232D2F7EB22E2AE030E025C0932D6E
:1011C000997FB92E8F36C1F018F4883579F0B5C003
:1011D000803719F0883721F0B0C0E92FE061BE2ECA
:1011E000B4FE0DC0FB2DF460BF2E09C034FE0AC052
:1011F000292F2660B22E06C028E030E005C020E18D
:1012000030E002C020E132E0F801B7FE07C06081A3
:101210007181828193810C5F1F4F06C06081718153
:1012200080E090E00E5F1F4FA3010E94F909882E15
:101230008618FB2DFF773F2E36FE0DC0232D2E7F07
:10124000A22E891458F434FE0BC032FC09C0832D41
:101250008E7EA82E05C0B82CA32C03C0B82C01C0CC
:10126000B92CA4FE0FC0FE01E80DF11D8081803372
:1012700021F49A2D997EA92E09C0A2FE06C0B3942E
:10128000B39404C08A2D867809F0B394A3FC11C0EE
:10129000A0FE06C0B21488F4280C922C9B180EC035
:1012A000B21460F4B60180E290E00E94BD09B394EC
:1012B000F7CFB21418F42B1802C0982C212CA4FEDE
:1012C00010C0B60180E390E00E94BD09A2FE17C0E5
:1012D000A1FC03C088E790E002C088E590E0B60179
:1012E0000CC08A2D867859F0A1FE02C08BE201C0A5
:1012F00080E2A7FC8DE2B60190E00E94BD0989144E
:1013000038F4B60180E390E00E94BD099A94F7CFCB
:101310008A94F301E80DF11D8081B60190E00E94EE
:10132000BD098110F5CF222009F442CEB60180E23A
:1013300090E00E94BD092A94F6CFF601868197813C
:1013400002C08FEF9FEF2B96E2E10C94730AFC0131
:101350000590615070400110D8F7809590958E0FE0
:101360009F1F0895FC016150704001900110D8F753
:10137000809590958E0F9F1F08950F931F93CF9385
:10138000DF93FB01238121FD03C08FEF9FEF2CC072
:1013900022FF16C0468157812481358142175307A9
:1013A00044F4A081B1819D012F5F3F4F31832083A1
:1013B0008C93268137812F5F3F4F3783268314C05C
:1013C0008B01EC01FB010084F185E02D0995892B4F
:1013D000E1F6D80116968D919C9117970196179674
:1013E0009C938E931697CE01DF91CF911F910F9111
:1013F0000895FA01AA27283051F1203181F1E894AB
:101400006F936E7F6E5F7F4F8F4F9F4FAF4FB1E0F7
:101410003ED0B4E03CD0670F781F891F9A1FA11DF2
:10142000680F791F8A1F911DA11D6A0F711D811DF3
:10143000911DA11D20D009F468943F912AE0269FB8
:1014400011243019305D3193DEF6CF010895462F17
:101450004770405D4193B3E00FD0C9F7F6CF462FF8
:101460004F70405D4A3318F0495D31FD4052419361
:1014700002D0A9F7EACFB4E0A6959795879577951E
:101480006795BA95C9F700976105710508959B01A5
:10149000AC010A2E06945795479537952795BA952E
:1014A000C9F7620F731F841F951FA01D08952F9207
:1014B0003F924F925F926F927F928F929F92AF92E4
:1014C000BF92CF92DF92EF92FF920F931F93CF9331
:1014D000DF93CDB7DEB7CA1BDB0B0FB6F894DEBFC8
:1014E0000FBECDBF09942A88398848885F846E84EE
:1014F0007D848C849B84AA84B984C884DF80EE8038
:10150000FD800C811B81AA81B981CE0FD11D0FB640
:10151000F894DEBF0FBECDBFED010895F894FFCF64
:1015200054657374696E6720636861726163746582
:10153000722069732025630A0D005072696E746908
:101540006E6720626C6F636B20256C640A0D00254A
:0A15500070200025322E32582000D2
:00000001FF
